:020000040800F2
:1000000058070020890100089101000893010008A9
:100010009501000897010008990100080000000000
:100020000000000000000000000000009B0100082C
:100030009D010008000000009F010008A1010008C8
:10004000A3010008A3010008A3010008A301000800
:10005000A3010008A3010008A3010008A3010008F0
:10006000A3010008A3010008A3010008A3010008E0
:10007000A3010008A3010008A3010008A3010008D0
:10008000A3010008A3010008A3010008A3010008C0
:10009000A3010008A3010008A3010008A3010008B0
:1000A000A3010008A3010008A3010008A3010008A0
:1000B000A3010008A3010008A3010008A301000890
:1000C000A3010008A3010008A3010008A301000880
:1000D000A3010008A3010008A3010008A301000870
:1000E000A3010008A3010008A301000800F002F822
:1000F00000F03AF80AA090E8000C82448344AAF188
:100100000107DA4501D100F02FF8AFF2090EBAE885
:100110000F0013F0010F18BFFB1A43F0010318473B
:10012000B8040000D8040000103A24BF78C878C191
:10013000FAD8520724BF30C830C144BF04680C60ED
:10014000704700000023002400250026103A28BF35
:1001500078C1FBD8520728BF30C148BF0B60704739
:100160001FB51FBD10B510BD00F031F81146FFF7E7
:10017000F7FF00F055F900F04FF803B4FFF7F2FF76
:1001800003BC00F057F800000948804709480047C1
:10019000FEE7FEE7FEE7FEE7FEE7FEE7FEE7FEE737
:1001A000FEE7FEE704480549054A064B7047000094
:1001B000A5030008ED0000085801002058070020A2
:1001C0005803002058030020704770477047754659
:1001D00000F02CF8AE4605006946534620F00700B3
:1001E000854618B020B5FFF7DDFFBDE820404FF091
:1001F00000064FF000074FF000084FF0000B21F011
:100200000701AC46ACE8C009ACE8C009ACE8C009DD
:10021000ACE8C0098D46704710B50446AFF30080C6
:100220002046BDE81040FFF7A8BF00000048704717
:10023000F800002001491820ABBEFEE726000200AE
:10024000704700000C48806940F004000A4988614A
:100250000A480068094908600846006840F03330E1
:100260000860081D0068091D08600846006840F025
:100270003330086070470000001002400008014061
:100280000C48806940F008000A4988610A48006803
:10029000094908600846006840F033300860081DCE
:1002A0000068091D08600846006840F033300860A7
:1002B0007047000000100240000C014010B500F033
:1002C00001F810BD0CB50020019000903348006883
:1002D00040F480303149086000BF3048006800F4C5
:1002E000003000900198401C0190009818B90198C6
:1002F000B0F5A06FF1D12948006800F4003010B1CA
:100300000120009001E0002000900098012843D1D6
:100310002348006840F01000214908600846006842
:1003200020F0030008600846006840F00200086002
:100330001A484068194948600846406848600846BD
:10034000406840F4806048600846406820F47C10B3
:1003500048600846406840F4E81048600846006875
:1003600040F08070086000BF0C48006800F000702A
:100370000028F9D00948406820F003000749486088
:100380000846406840F00200486000BF03484068EB
:1003900000F00C000828F9D10CBD0000001002404C
:1003A0000020024010B51348006840F001001149D8
:1003B000086008464068104908400E4948600846F1
:1003C00000680E4908400B4908600846006820F4A0
:1003D000802008600846406820F4FE0048604FF422
:1003E0001F008860FFF76AFF4FF000600449086053
:1003F00010BD0000001002400000FFF8FFFFF6FEF5
:1004000008ED00E0002107E0002200E0521C42F667
:10041000FF239A42FADB491C8142F5DB704700005A
:10042000FFF710FFFFF72CFF2FE0184800684FF68A
:10043000FF71084315490860154800684FF6FF71C1
:1004400008431349086000F07FF8104800684FF631
:10045000FF7108430D4908600D4800684FF6FF71B1
:1004600008430B49086000F08FF8084800684FF611
:10047000FF71084305490860054800684FF6FF71A1
:1004800008430349086000F005F8CEE70C08014076
:100490000C0C014030B5284800684FF6FE7108404A
:1004A000254908600220FFF7ADFF002413E0224831
:1004B0000068224951F8241008401F49086020486C
:1004C0000068204951F8241008401D4908600220A6
:1004D000FFF798FF641C0E2CE9DB19480068002028
:1004E000174908600220FFF78DFF032520E012481E
:1004F00000684FF6FF7108430F4908601048006814
:100500004FF6FF7108430E4908600520FFF77AFF98
:10051000094800686FF30F00074908600848006841
:100520006FF30F00064908600520FFF76BFF6D1E93
:10053000002DDCDC30BD00000C0801400000002074
:100540000C0C01403C00002010B5002413E00B48C7
:1005500000680B4951F82410084008490860094810
:100560000068074951F82410084006490860052032
:10057000FFF748FF641C082CE9DB10BD0C080140A4
:10058000D80000200C0C014030B500240BE00F48CF
:1005900000680F4951F8241008400C4908600320F6
:1005A000FFF730FF641C102CF1DB00250BE009483D
:1005B0000068074951F825100840064908600320E3
:1005C000FFF720FF6D1C102DF1DB30BD0C08014042
:1005D000780000200C0C0140F80500080000002005
:1005E000F800000028010008F0060008F8000020CC
:1005F0006006000044010008FCFF0000F8FF000056
:10060000F0FF0000E0FF0000C0FF000080FF0000DE
:1006100000FF000000FE000000FC000000F80000E9
:1006200000F0000000E0000000C0000000800000BA
:1006300000000000FF7F0000FF3F0000FF1F0000E0
:10064000FF0F0000FF070000FF030000FF01000094
:10065000FF0000007F0000003F0000001F000000BE
:100660000F00000007000000030000000100000070
:10067000FEFF0000FCFF0000F8FF0000F0FF00009C
:10068000E0FF0000C0FF000080FF000000FF00004E
:1006900000FE000000FC000000F8000000F0000078
:1006A00000E0000000C0000000800000000000002A
:1006B000FEFE0000FDFD0000FBFB0000F7F7000060
:1006C000EFEF0000DFDF0000BFBF00007F7F000012
:1006D0007F7F0000BFBF0000DFDF0000EFEF000002
:1006E000F7F70000FBFB0000FDFD0000FEFE000030
:04000005080000ED02
:00000001FF
