:020000040800F2
:1000000010040020010100086B04000863040008CC
:1000100067040008490100085106000800000000BC
:1000200000000000000000000000000001050008C2
:100030004D01000800000000DD040008ED05000887
:100040001B0100081B0100081B0100081B01000820
:100050001B0100081B0100081B0100081B01000810
:100060001B0100081B0100081B0100081B01000800
:100070001B0100081B0100081B0100081B010008F0
:100080001B0100081B0100081B0100081B010008E0
:100090001B0100081B0100081B0100081B010008D0
:1000A0001B0100081B0100081B0100081B010008C0
:1000B0001B0100081B0100081B0100081B010008B0
:1000C0001B0100081B0100081B0100081B010008A0
:1000D0001B0100081B0100081B0100081B01000890
:1000E000510100081B0100081B010008DFF80CD0BB
:1000F00000F018F8004800477506000810040020BA
:100100000648804706480047FEE7FEE7FEE7FEE7B1
:10011000FEE7FEE7FEE7FEE7FEE7FEE7F105000883
:10012000ED000008064C074D06E0E06840F00103D2
:1001300094E8070098471034AC42F6D3FFF7DAFF93
:1001400090060008B006000800BFFEE770470000F8
:1001500010B54FF4005000F055F880B14FF4005046
:1001600000F010F84FF40071054800F06AF980F0D3
:10017000010422464FF40071014800F06DF910BDF2
:10018000000C014001490860704700001404014060
:1001900010B50121112000F0A3F94FF400501549CA
:1001A0000880032088704820C870134800F0BEF80B
:1001B0000D21022000F09AF84FF40050FFF7E2FF03
:1001C00000200E4908714FF4005008600C2048715F
:1001D00001208871084600F029F828200849087095
:1001E0000020487088700120C870084600F03EF971
:1001F00010BD00000000002000100140040000209D
:100200000C000020014600200022074B1B6803EA77
:100210000102054B14331B680B4013B10AB10120D6
:1002200000E0002070470000000401400021234945
:100230008279002A3AD00A46126803689A430B462C
:100240001A600A1D126803689A430B1D1A6002792E
:1002500011440A6803681A430A60184A083212688F
:1002600003689A43154B08331A601A1D1268036815
:100270009A43124B0C331A604279102A0ED11A1F7E
:10028000126803681A430D4B08331A601A1D12686E
:1002900003681A43094B0C331A600DE00749427991
:1002A00011440A6803681A430A6005E002791144A0
:1002B0000A6803689A430A6070470000000401401E
:1002C00010B50121192000F00BF94FF40070054919
:1002D0000880032088701020C870034800F026F8BA
:1002E00010BD000000000020000C014030B50022CD
:1002F0008B071C0F0F2303FA04F20B4B8C1053F8DF
:1003000024309343084C8D1044F8253023468C103C
:1003100053F824308C07240F00FA04F42343024CD2
:100320008D1044F8253030BD080001402DE9F04122
:10033000024600250026002000230024002791F813
:1003400003C00CF00F0591F803C00CF0100CBCF1C9
:10035000000F03D091F802C04CEA050591F800C0E7
:10036000BCF1000F31D0146800202BE04FF0010CDD
:100370000CFA00F3B1F800C00CEA03069E4220D14B
:1003800083004FF00F0C0CFA03F7BC4305FA03FC93
:100390004CEA040491F803C0BCF1280F06D14FF0D9
:1003A000010C0CFA00FCC2F814C00AE091F803C07A
:1003B000BCF1480F05D14FF0010C0CFA00FCC2F85B
:1003C00010C0401C0828D1D31460B1F800C0BCF1A3
:1003D000FF0F34DD546800202EE000F1080C4FF0D0
:1003E000010808FA0CF3B1F800C00CEA03069E42BB
:1003F00021D183004FF00F0C0CFA03F7BC4305FA30
:1004000003FC4CEA040491F803C0BCF1280F05D1A9
:1004100000F1080C08FA0CF8C2F8148091F803C037
:10042000BCF1480F07D100F1080C4FF0010808FAA1
:100430000CF8C2F81080401C0828CED35460BDE8E8
:10044000F0810246002093680B400BB1012000E0D0
:1004500000207047016170470AB1016100E041610D
:10046000704700BFFEE700BFFEE7704770B5002190
:1004700000230F22C47804B3154C246804F4E0640C
:10048000C4F5E064210AC1F10403CA40447804FAC7
:1004900003F184781440214309010E4C0678A155DC
:1004A000047804F01F050124AC4005786D11AD00FF
:1004B00005F1E025C5F8004109E0047804F01F05C6
:1004C0000124AC40044D0678761145F8264070BDF5
:1004D0000CED00E000E400E080E100E07047000087
:1004E00029B1064A92690243044B9A6104E0034A27
:1004F00092698243014B9A617047000000100240EC
:10050000704710B500F002F810BD00000CB50020D7
:10051000019000903348006840F480303149086011
:1005200000BF3048006800F4003000900198401C83
:100530000190009818B90198B0F5A06FF1D1294841
:10054000006800F4003010B10120009001E00020AC
:1005500000900098012843D12348006840F0100023
:10056000214908600846006820F007000860084636
:10057000006840F0020008601A4840681949486065
:100580000846406848600846406840F4806048601B
:100590000846406820F47C1048600846406840F4F3
:1005A000E81048600846006840F08070086000BFAE
:1005B0000C48006800F000700028F9D00948406835
:1005C00020F00300074948600846406840F00200F8
:1005D000486000BF0348406800F00C000828F9D1CB
:1005E0000CBD0000001002400020024070470000D7
:1005F00010B51348006840F0010011490860084632
:100600004068104908400E494860084600680E4995
:1006100008400B4908600846006820F48020086004
:100620000846406820F4FE0048604FF41F008860D0
:10063000FFF767FF4FF000600449086010BD00003D
:10064000001002400000FFF8FFFFF6FE08ED00E09A
:1006500000BFFEE702E008C8121F08C1002AFAD155
:1006600070477047002001E001C1121F002AFBD132
:1006700070470000FFF724FEFFF78AFD4FF400717A
:100680000248FFF7E7FE00BFFEE70000000C014054
:10069000B00600080000002010000000540600080A
:1006A000C0060008100000200004000064060008D6
:1006B000000000000000000000000000000000003A
:04000005080000ED02
:00000001FF
